:1000000067C0000082C0000080C000007EC0000009
:100010007CC000007AC0000078C0000076C00000FC
:1000200074C0000072C0000070C000006EC000000C
:100030006CC000003CC1000068C0000066C0000049
:1000400064C0000062C0000060C000005EC000002C
:100050005CC000005AC0000058C0000056C000003C
:1000600054C0000052C0000050C000004EC000004C
:100070004CC000004AC0000048C0000046C000005C
:1000800044C0000042C0000040C000002C0130010C
:1000900030013001300130013001220130013001E6
:1000A0003001300130012701E100E600EB00F000F3
:1000B000F500FA00FF0004010901300130013001B0
:1000C00030013001300130010E01130118011D0112
:1000D00011241FBECFEFD0E4DEBFCDBF11E0A0E002
:1000E000B1E0E8EBF5E000E00BBF02C007900D9235
:1000F000A430B107D9F721E0A4E0B1E001C01D921E
:10010000A032B207E1F773D155C27ACF181619069B
:100110005CF00895000021503109E1F74F5F5F4F17
:100120008417950719F4089540E050E027E033E084
:10013000F1CF5E9888B95F9A00005F9882E090E006
:10014000E5CF0895813118F48158F3CF0895815592
:10015000F0CF089584E690E0D9DF88E3EADF86E017
:10016000E8DF8FE0E6DF81E0E4DF8AE090E0CECFF9
:1001700008955E9A88B95F9A00005F9881E090E0E8
:10018000C5CF0895892B09F06BC0E0911A018FEB60
:100190008E0F843058F0EA3209F454C080ED8E0F8F
:1001A0008A3020F0E33209F05BC056C08E2F90E019
:1001B000FC01B397E232F10508F052C0EA5BFF4F51
:1001C000F0C181E3D6DF81E0BDDF4AC082E3D1DF49
:1001D00081E0B8DF45C083E3CCDF81E0B3DF40C01E
:1001E00084E3C7DF81E0AEDF3BC085E3C2DF81E0AF
:1001F000A9DF36C086E3BDDF81E0A4DF31C087E33D
:10020000B8DF81E09FDF2CC088E3B3DF81E09ADFB5
:1002100027C089E3AEDF81E095DF22C081E4A9DF5A
:1002200081E090DF1DC082E4A4DF81E08BDF18C095
:1002300083E49FDF81E086DF13C084E49ADF81E0FE
:1002400081DF0EC08AE295DF81E07CDF09C080E3B8
:1002500090DF81E077DF04C083E28BDF81E072DF33
:1002600080E090E008958BE0809381008DE790E03E
:10027000909389008093880082E080936F001092B1
:100280008500109284008091000190910101A0915D
:100290000201B091030180931C0190931D01A09372
:1002A0001E01B0931F018FB780688FBF08951F9202
:1002B0000F920FB60F9211248F939F93AF93BF931A
:1002C00080911C0190911D01A0911E01B0911F0110
:1002D0000197A109B10980931C0190931D01A0937E
:1002E0001E01B0931F01892B8A2B8B2B99F481E07F
:1002F00080931B018091000190910101A091020166
:10030000B091030180931C0190931D01A0931E01E5
:10031000B0931F01BF91AF919F918F910F900FBE2E
:100320000F901F90189560930001709301018093C6
:1003300002019093030160931C0170931D0180934F
:100340001E0190931F0108958FEE88B90000309B25
:1003500029C0319B29C0329B29C0339B29C08FED16
:1003600088B90000309B26C0319B26C0329B26C036
:10037000339B26C08FEB88B90000309B23C0319B94
:1003800023C0329B23C0339B23C08FE788B9000072
:10039000309B20C0319B20C0329B20C0339B20C0AB
:1003A00080E0089581E3089584E3089587E3089544
:1003B0008AE2089582E3089585E3089588E3089525
:1003C00080E3089583E3089586E3089589E308951B
:1003D00083E2089581E4089582E4089583E4089512
:1003E00084E40895B1DF80931A0190E00895CF93DB
:1003F000DF9300D000D0CDB7DEB78FEF81B912B850
:100400008AB91BB880EF87B98FE088B9A3DE0F2EB9
:10041000F2E3EF2EF02DF12C00E010E05AE040E086
:1004200030E020E004C0E62EF72E082F192F652FAC
:10043000742F832F922F2E2D3F2D402F512F8FD091
:100440005E2D4F2D302F212F6115710581059105EE
:1004500051F76AE070E080E090E02E2D3F2D402FB4
:10046000512F7DD049015A0162E370E080E090E0B5
:100470002E2D3F2D402F512F72D0AFE0B1E0BA8327
:10048000A983E4E0F1E0FC83EB838FEF8C9311967A
:100490008D929D92AD92BC92149715968D929D92DD
:1004A000AD92BC92189762EF71E01A967C936E93AE
:1004B0001997808321833283438354832583368332
:1004C0004783508782EC90E0928781876E2D7F2D45
:1004D000802F912F28DFC7DE7E0185E0E80EF11C1A
:1004E000DE0111966D01F601019111916F01D801A4
:1004F00015964D915D916D917C91189711968D9106
:100500009D910D90BC91A02D481759076A077B0754
:1005100081F4F80180810184F285E02D082E000C21
:10052000990B0995D8018C93F801158216821782D0
:100530001086F80185819681A781B0850196A11D5D
:10054000B11D85839683A783B087CE14DF0459F647
:1005500080911B018823E1F310921B01C1CFA1E21E
:100560001A2EAA1BBB1BFD010DC0AA1FBB1FEE1F2D
:10057000FF1FA217B307E407F50720F0A21BB30B78
:10058000E40BF50B661F771F881F991F1A9469F7F4
:1005900060957095809590959B01AC01BD01CF0150
:1005A0000895EE0FFF1F0024001C0BBE0790F6916C
:0805B000E02D0994F894FFCF3F
:0405B800010000003E
:00000001FF
